{"abi":[{"type":"constructor","inputs":[{"name":"_moltToken","type":"address","internalType":"address"}],"stateMutability":"nonpayable"},{"type":"function","name":"UNSTAKE_COOLDOWN","inputs":[],"outputs":[{"name":"","type":"uint256","internalType":"uint256"}],"stateMutability":"view"},{"type":"function","name":"UNSTAKE_FEE_BPS","inputs":[],"outputs":[{"name":"","type":"uint256","internalType":"uint256"}],"stateMutability":"view"},{"type":"function","name":"cancelUnstake","inputs":[],"outputs":[],"stateMutability":"nonpayable"},{"type":"function","name":"getReputation","inputs":[{"name":"agent","type":"address","internalType":"address"}],"outputs":[{"name":"score","type":"uint256","internalType":"uint256"}],"stateMutability":"view"},{"type":"function","name":"getStakeInfo","inputs":[{"name":"agent","type":"address","internalType":"address"}],"outputs":[{"name":"amount","type":"uint256","internalType":"uint256"},{"name":"stakedAt","type":"uint256","internalType":"uint256"},{"name":"slashCount","type":"uint256","internalType":"uint256"},{"name":"totalSlashed","type":"uint256","internalType":"uint256"},{"name":"pendingUnstake","type":"uint256","internalType":"uint256"},{"name":"unstakeAvailableAt","type":"uint256","internalType":"uint256"}],"stateMutability":"view"},{"type":"function","name":"getTier","inputs":[{"name":"agent","type":"address","internalType":"address"}],"outputs":[{"name":"tier","type":"uint8","internalType":"uint8"}],"stateMutability":"view"},{"type":"function","name":"moltToken","inputs":[],"outputs":[{"name":"","type":"address","internalType":"contract IERC20"}],"stateMutability":"view"},{"type":"function","name":"owner","inputs":[],"outputs":[{"name":"","type":"address","internalType":"address"}],"stateMutability":"view"},{"type":"function","name":"renounceOwnership","inputs":[],"outputs":[],"stateMutability":"nonpayable"},{"type":"function","name":"requestUnstake","inputs":[{"name":"amount","type":"uint256","internalType":"uint256"}],"outputs":[],"stateMutability":"nonpayable"},{"type":"function","name":"setSlasher","inputs":[{"name":"slasher","type":"address","internalType":"address"},{"name":"authorized","type":"bool","internalType":"bool"}],"outputs":[],"stateMutability":"nonpayable"},{"type":"function","name":"slash","inputs":[{"name":"agent","type":"address","internalType":"address"},{"name":"bps","type":"uint256","internalType":"uint256"},{"name":"reason","type":"string","internalType":"string"}],"outputs":[],"stateMutability":"nonpayable"},{"type":"function","name":"slashPool","inputs":[],"outputs":[{"name":"","type":"uint256","internalType":"uint256"}],"stateMutability":"view"},{"type":"function","name":"slashers","inputs":[{"name":"","type":"address","internalType":"address"}],"outputs":[{"name":"","type":"bool","internalType":"bool"}],"stateMutability":"view"},{"type":"function","name":"stake","inputs":[{"name":"amount","type":"uint256","internalType":"uint256"}],"outputs":[],"stateMutability":"nonpayable"},{"type":"function","name":"stakes","inputs":[{"name":"","type":"address","internalType":"address"}],"outputs":[{"name":"amount","type":"uint256","internalType":"uint256"},{"name":"stakedAt","type":"uint256","internalType":"uint256"},{"name":"slashCount","type":"uint256","internalType":"uint256"},{"name":"totalSlashed","type":"uint256","internalType":"uint256"}],"stateMutability":"view"},{"type":"function","name":"totalStaked","inputs":[],"outputs":[{"name":"","type":"uint256","internalType":"uint256"}],"stateMutability":"view"},{"type":"function","name":"transferOwnership","inputs":[{"name":"newOwner","type":"address","internalType":"address"}],"outputs":[],"stateMutability":"nonpayable"},{"type":"function","name":"unstake","inputs":[],"outputs":[],"stateMutability":"nonpayable"},{"type":"function","name":"unstakeRequestAmount","inputs":[{"name":"","type":"address","internalType":"address"}],"outputs":[{"name":"","type":"uint256","internalType":"uint256"}],"stateMutability":"view"},{"type":"function","name":"unstakeRequestTime","inputs":[{"name":"","type":"address","internalType":"address"}],"outputs":[{"name":"","type":"uint256","internalType":"uint256"}],"stateMutability":"view"},{"type":"function","name":"withdrawSlashPool","inputs":[{"name":"to","type":"address","internalType":"address"},{"name":"amount","type":"uint256","internalType":"uint256"}],"outputs":[],"stateMutability":"nonpayable"},{"type":"event","name":"OwnershipTransferred","inputs":[{"name":"previousOwner","type":"address","indexed":true,"internalType":"address"},{"name":"newOwner","type":"address","indexed":true,"internalType":"address"}],"anonymous":false},{"type":"event","name":"Slashed","inputs":[{"name":"agent","type":"address","indexed":true,"internalType":"address"},{"name":"amount","type":"uint256","indexed":false,"internalType":"uint256"},{"name":"reason","type":"string","indexed":false,"internalType":"string"}],"anonymous":false},{"type":"event","name":"SlasherUpdated","inputs":[{"name":"slasher","type":"address","indexed":true,"internalType":"address"},{"name":"authorized","type":"bool","indexed":false,"internalType":"bool"}],"anonymous":false},{"type":"event","name":"Staked","inputs":[{"name":"agent","type":"address","indexed":true,"internalType":"address"},{"name":"amount","type":"uint256","indexed":false,"internalType":"uint256"},{"name":"totalStake","type":"uint256","indexed":false,"internalType":"uint256"}],"anonymous":false},{"type":"event","name":"UnstakeRequested","inputs":[{"name":"agent","type":"address","indexed":true,"internalType":"address"},{"name":"amount","type":"uint256","indexed":false,"internalType":"uint256"},{"name":"availableAt","type":"uint256","indexed":false,"internalType":"uint256"}],"anonymous":false},{"type":"event","name":"Unstaked","inputs":[{"name":"agent","type":"address","indexed":true,"internalType":"address"},{"name":"amount","type":"uint256","indexed":false,"internalType":"uint256"},{"name":"fee","type":"uint256","indexed":false,"internalType":"uint256"}],"anonymous":false},{"type":"error","name":"OwnableInvalidOwner","inputs":[{"name":"owner","type":"address","internalType":"address"}]},{"type":"error","name":"OwnableUnauthorizedAccount","inputs":[{"name":"account","type":"address","internalType":"address"}]},{"type":"error","name":"ReentrancyGuardReentrantCall","inputs":[]}],"bytecode":{"object":"0x60a060405234801561000f575f80fd5b5060405161140c38038061140c83398101604081905261002e916100e1565b338061005357604051631e4fbdf760e01b81525f600482015260240160405180910390fd5b61005c81610092565b5060017f9b779b17422d0df92223018b32b4d1fa46e071723d6817e2486d003becc55f00556001600160a01b031660805261010e565b5f80546001600160a01b038381166001600160a01b0319831681178455604051919092169283917f8be0079c531659141344cd1fd0a4f28419497f9722a3daafe3b4186f6b6457e09190a35050565b5f602082840312156100f1575f80fd5b81516001600160a01b0381168114610107575f80fd5b9392505050565b6080516112d161013b5f395f818161020f0152818161067301528181610a9e0152610cbd01526112d15ff3fe608060405234801561000f575f80fd5b506004361061013d575f3560e01c80638caed93d116100b4578063b45aae5211610079578063b45aae52146102d5578063b87fcbff146102fa578063c2fff0df1461032c578063c345315314610334578063dd685d0814610374578063f2fde38b1461037d575f80fd5b80638caed93d1461026d5780638da5cb5b146102805780639c89a0e214610290578063a599efd2146102a3578063a694fc3a146102c2575f80fd5b80634ab17969116101055780634ab17969146101ef57806352348080146101f757806360fdc72b1461020a578063678b3ee214610249578063715018a61461025c578063817b1cd214610264575f80fd5b80630b60c58f1461014157806316934fc41461015e57806323095721146101b35780632def6620146101c85780633890b152146101d0575b5f80fd5b61014b62093a8081565b6040519081526020015b60405180910390f35b61019361016c36600461106b565b600160208190525f9182526040909120805491810154600282015460039092015490919084565b604080519485526020850193909352918301526060820152608001610155565b6101c66101c136600461108b565b610390565b005b6101c66104ae565b61014b6101de36600461106b565b60046020525f908152604090205481565b6101c6610750565b6101c66102053660046110af565b6107be565b6102317f000000000000000000000000000000000000000000000000000000000000000081565b6040516001600160a01b039091168152602001610155565b6101c66102573660046110e4565b61081d565b6101c6610a03565b61014b60025481565b6101c661027b366004611164565b610a14565b5f546001600160a01b0316610231565b61014b61029e36600461106b565b610b28565b61014b6102b136600461106b565b60056020525f908152604090205481565b6101c66102d036600461108b565b610c4f565b6102e86102e336600461106b565b610df5565b60405160ff9091168152602001610155565b61031c61030836600461106b565b60066020525f908152604090205460ff1681565b6040519015158152602001610155565b61014b606481565b61034761034236600461106b565b610e7b565b604080519687526020870195909552938501929092526060840152608083015260a082015260c001610155565b61014b60035481565b6101c661038b36600461106b565b610eeb565b335f90815260016020526040902080548211156103e95760405162461bcd60e51b8152602060048201526012602482015271496e73756666696369656e74207374616b6560701b60448201526064015b60405180910390fd5b335f908152600560205260409020541561043e5760405162461bcd60e51b815260206004820152601660248201527550656e64696e6720726571756573742065786973747360501b60448201526064016103e0565b335f818152600460209081526040808320429081905560059092529091208490557f57e41df54512c76148b5ba9b643d149752b0d35e493b969bd017d0a3fe5228cf9084906104919062093a80906111a0565b604080519283526020830191909152015b60405180910390a25050565b6104b6610f25565b335f90815260056020526040902054806105075760405162461bcd60e51b8152602060048201526012602482015271139bc81c195b991a5b99c81c995c5d595cdd60721b60448201526064016103e0565b335f908152600460205260409020546105249062093a80906111a0565b42101561056b5760405162461bcd60e51b8152602060048201526015602482015274436f6f6c646f776e206e6f7420636f6d706c65746560581b60448201526064016103e0565b335f90815260016020526040902080548211156105bf5760405162461bcd60e51b8152602060048201526012602482015271496e73756666696369656e74207374616b6560701b60448201526064016103e0565b5f6127106105ce6064856111b9565b6105d891906111d0565b90505f6105e582856111ef565b905083835f015f8282546105f991906111ef565b925050819055508360025f82825461061191906111ef565b925050819055508160035f82825461062991906111a0565b9091555050335f81815260056020908152604080832083905560049182905280832092909255905163a9059cbb60e01b815290810191909152602481018290526001600160a01b037f0000000000000000000000000000000000000000000000000000000000000000169063a9059cbb906044016020604051808303815f875af11580156106b9573d5f803e3d5ffd5b505050506040513d601f19601f820116820180604052508101906106dd9190611202565b6106f95760405162461bcd60e51b81526004016103e09061121d565b604080518281526020810184905233917f7fc4727e062e336010f2c282598ef5f14facb3de68cf8195c2f23e1454b2b74e910160405180910390a25050505061074e60015f8051602061127c83398151915255565b565b335f908152600560205260409020546107a05760405162461bcd60e51b8152602060048201526012602482015271139bc81c195b991a5b99c81c995c5d595cdd60721b60448201526064016103e0565b335f9081526005602090815260408083208390556004909152812055565b6107c6610f40565b6001600160a01b0382165f81815260066020908152604091829020805460ff191685151590811790915591519182527feb3af117484a092137d31b606301615ef829364c4c501ae769735869d31d1d5191016104a2565b335f9081526006602052604090205460ff168061084357505f546001600160a01b031633145b6108805760405162461bcd60e51b815260206004820152600e60248201526d139bdd08185d5d1a1bdc9a5e995960921b60448201526064016103e0565b6127108311156108c05760405162461bcd60e51b815260206004820152600b60248201526a496e76616c69642062707360a81b60448201526064016103e0565b6001600160a01b0384165f90815260016020526040902080546109195760405162461bcd60e51b815260206004820152601160248201527009cde40e6e8c2d6ca40e8de40e6d8c2e6d607b1b60448201526064016103e0565b5f61271085835f015461092c91906111b9565b61093691906111d0565b905080825f015f82825461094a91906111ef565b925050819055506001826002015f82825461096591906111a0565b9250508190555080826003015f82825461097f91906111a0565b925050819055508060025f82825461099791906111ef565b925050819055508060035f8282546109af91906111a0565b92505081905550856001600160a01b03167f7e947095ed288d8885423bdaef4015b7420ffa9b84d62ef67c402e8bc36a8ea98286866040516109f393929190611246565b60405180910390a2505050505050565b610a0b610f40565b61074e5f610f6c565b610a1c610f40565b600354811115610a625760405162461bcd60e51b8152602060048201526011602482015270125b9cdd59999a58da595b9d081c1bdbdb607a1b60448201526064016103e0565b8060035f828254610a7391906111ef565b909155505060405163a9059cbb60e01b81526001600160a01b038381166004830152602482018390527f0000000000000000000000000000000000000000000000000000000000000000169063a9059cbb906044016020604051808303815f875af1158015610ae4573d5f803e3d5ffd5b505050506040513d601f19601f82011682018060405250810190610b089190611202565b610b245760405162461bcd60e51b81526004016103e09061121d565b5050565b6001600160a01b0381165f90815260016020526040812080548203610b4f57505f92915050565b5f610b5c825f0154610fbb565b90505f62015180836001015442610b7391906111ef565b610b7d91906111d0565b90505f61016d610b9583670de0b6b3a76400006111b9565b610b9f91906111d0565b610bb190670de0b6b3a76400006111a0565b9050671bc16d674ec80000811115610bce5750671bc16d674ec800005b5f846002015467016345785d8a0000610be791906111b9565b9050670de0b6b3a7640000811115610c045750670de0b6b3a76400005b6ec097ce7bc90715b34b9f1000000000610c2682670de0b6b3a76400006111ef565b610c3084876111b9565b610c3a91906111b9565b610c4491906111d0565b979650505050505050565b610c57610f25565b5f8111610c9b5760405162461bcd60e51b81526020600482015260126024820152710416d6f756e74206d757374206265203e20360741b60448201526064016103e0565b6040516323b872dd60e01b8152336004820152306024820152604481018290527f00000000000000000000000000000000000000000000000000000000000000006001600160a01b0316906323b872dd906064016020604051808303815f875af1158015610d0b573d5f803e3d5ffd5b505050506040513d601f19601f82011682018060405250810190610d2f9190611202565b610d4b5760405162461bcd60e51b81526004016103e09061121d565b335f9081526001602052604081208054909103610d69574260018201555b81815f015f828254610d7b91906111a0565b925050819055508160025f828254610d9391906111a0565b9091555050805460405133917f1449c6dd7851abc30abf37f57715f492010519147cc2652fbc38202c18a6ee9091610dd391868252602082015260400190565b60405180910390a250610df260015f8051602061127c83398151915255565b50565b6001600160a01b0381165f9081526001602052604081205469152d02c7e14af68000008110610e275750600492915050565b69021e19e0c9bab24000008110610e415750600392915050565b683635c9adc5dea000008110610e5a5750600292915050565b68056bc75e2d631000008110610e735750600192915050565b505f92915050565b6001600160a01b0381165f908152600160208181526040808420805493810154600282015460038301546005865284882054600490965293872054879687968796879687969095939490939290610ed69062093a80906111a0565b949d939c50919a509850965090945092505050565b610ef3610f40565b6001600160a01b038116610f1c57604051631e4fbdf760e01b81525f60048201526024016103e0565b610df281610f6c565b610f2d611021565b60025f8051602061127c83398151915255565b5f546001600160a01b0316331461074e5760405163118cdaa760e01b81523360048201526024016103e0565b5f80546001600160a01b038381166001600160a01b0319831681178455604051919092169283917f8be0079c531659141344cd1fd0a4f28419497f9722a3daafe3b4186f6b6457e09190a35050565b5f815f03610fca57505f919050565b5f6002610fd88460016111a0565b610fe291906111d0565b90508291505b8181101561101b5790508060028161100081866111d0565b61100a91906111a0565b61101491906111d0565b9050610fe8565b50919050565b5f8051602061127c8339815191525460020361074e57604051633ee5aeb560e01b815260040160405180910390fd5b80356001600160a01b0381168114611066575f80fd5b919050565b5f6020828403121561107b575f80fd5b61108482611050565b9392505050565b5f6020828403121561109b575f80fd5b5035919050565b8015158114610df2575f80fd5b5f80604083850312156110c0575f80fd5b6110c983611050565b915060208301356110d9816110a2565b809150509250929050565b5f805f80606085870312156110f7575f80fd5b61110085611050565b935060208501359250604085013567ffffffffffffffff80821115611123575f80fd5b818701915087601f830112611136575f80fd5b813581811115611144575f80fd5b886020828501011115611155575f80fd5b95989497505060200194505050565b5f8060408385031215611175575f80fd5b61117e83611050565b946020939093013593505050565b634e487b7160e01b5f52601160045260245ffd5b808201808211156111b3576111b361118c565b92915050565b80820281158282048414176111b3576111b361118c565b5f826111ea57634e487b7160e01b5f52601260045260245ffd5b500490565b818103818111156111b3576111b361118c565b5f60208284031215611212575f80fd5b8151611084816110a2565b6020808252600f908201526e151c985b9cd9995c8819985a5b1959608a1b604082015260600190565b83815260406020820152816040820152818360608301375f818301606090810191909152601f909201601f191601019291505056fe9b779b17422d0df92223018b32b4d1fa46e071723d6817e2486d003becc55f00a2646970667358221220d83e06968600c9c4f20d236ab18ef8e64a0eca4a805453aaf743997e1c82235d64736f6c63430008140033","linkReferences":{}},"methodIdentifiers":{"UNSTAKE_COOLDOWN()":"0b60c58f","UNSTAKE_FEE_BPS()":"c2fff0df","cancelUnstake()":"4ab17969","getReputation(address)":"9c89a0e2","getStakeInfo(address)":"c3453153","getTier(address)":"b45aae52","moltToken()":"60fdc72b","owner()":"8da5cb5b","renounceOwnership()":"715018a6","requestUnstake(uint256)":"23095721","setSlasher(address,bool)":"52348080","slash(address,uint256,string)":"678b3ee2","slashPool()":"dd685d08","slashers(address)":"b87fcbff","stake(uint256)":"a694fc3a","stakes(address)":"16934fc4","totalStaked()":"817b1cd2","transferOwnership(address)":"f2fde38b","unstake()":"2def6620","unstakeRequestAmount(address)":"a599efd2","unstakeRequestTime(address)":"3890b152","withdrawSlashPool(address,uint256)":"8caed93d"},"id":0}